:020000040800F2
:1000000000000120A9090008F9090008F909000801
:10001000F9090008F9090008F909000800000000C2
:10002000000000000000000000000000F9090008C6
:10003000F909000800000000F9090008F9090008A2
:1000400000000000F9090008F9090008F909000892
:10005000F9090008F9090008310800083D080008FE
:10006000F9090008F9090008F90900080000000072
:100070000000000000000000000000000000000080
:100080000000000000000000F90900080000000066
:10009000000000000000000000000000F909000856
:1000A000F9090008F9090008F9090008F909000828
:1000B000F9090008F909000800000000F909000822
:1000C000F9090008F9090008F9090008F909000808
:1000D000F909000800000000000000000000000016
:1000E000F9090008F9090008F909000800000000F2
:1000F0000000000000000000000000000000000000
:1001000000000000F909000800000000F9090008DB
:1001100000000000000000000000000000000000DF
:1001200000000000000000000000000000000000CF
:1001300000000000000000000000000000000000BF
:10014000000000000000000000000000F9090008A5
:10015000000000000000000000000000000000009F
:10016000F9090008F909000800000000000000007B
:10017000000000000000000000000000000000007F
:1001800000000000F9090008000000000000000065
:04019000F909000861
:1001940010B5054C237833B9044B13B10448AFF3BD
:1001A40000800123237010BD3404002000000000EF
:1001B400600B000808B5034B1BB103490348AFF3B8
:1001C400008008BD0000000038040020600B000817
:1001D40080B582B000AF7860084611461A460346DF
:1001E400FB700B46BB7013467B703B7DF978012294
:1001F400786800F0C9F93B7DB9780122786800F08D
:10020400C3F93B7D79780122786800F0BDF93B7D24
:10021400397C0122786800F0B7F900BF0837BD4681
:1002240080BD000080B584B000AFF860B9601346AB
:10023400FB71FB79092B00F2578101A252F823F0DC
:100244006D020008AD020008ED0200082D0300084D
:100254006D030008AD030008ED0300082D04000839
:100264006D040008AD040008BB681B780022194621
:10027400F86800F0EFF9BB6801331B7800221946D7
:10028400F86800F0E7F9BB6802331B7800221946CE
:10029400F86800F0DFF9BB6803331B7800221946C5
:1002A400F86800F0D7F968E1BB681B7801221946A9
:1002B400F86800F0CFF9BB6801331B7800221946B7
:1002C400F86800F0C7F9BB6802331B7800221946AE
:1002D400F86800F0BFF9BB6803331B7800221946A5
:1002E400F86800F0B7F948E1BB681B7800221946AA
:1002F400F86800F0AFF9BB6801331B780122194696
:10030400F86800F0A7F9BB6802331B78002219468D
:10031400F86800F09FF9BB6803331B780022194684
:10032400F86800F097F928E1BB681B7801221946A8
:10033400F86800F08FF9BB6801331B780122194675
:10034400F86800F087F9BB6802331B78002219466D
:10035400F86800F07FF9BB6803331B780022194664
:10036400F86800F077F908E1BB681B7800221946A9
:10037400F86800F06FF9BB6801331B780022194656
:10038400F86800F067F9BB6802331B78012219464C
:10039400F86800F05FF9BB6803331B780022194644
:1003A400F86800F057F9E8E0BB681B7801221946A9
:1003B400F86800F04FF9BB6801331B780022194636
:1003C400F86800F047F9BB6802331B78012219462C
:1003D400F86800F03FF9BB6803331B780022194624
:1003E400F86800F037F9C8E0BB681B7800221946AA
:1003F400F86800F02FF9BB6801331B780122194615
:10040400F86800F027F9BB6802331B78012219460B
:10041400F86800F01FF9BB6803331B780022194603
:10042400F86800F017F9A8E0BB681B7801221946A8
:10043400F86800F00FF9BB6801331B7801221946F4
:10044400F86800F007F9BB6802331B7801221946EB
:10045400F86800F0FFF8BB6803331B7800221946E4
:10046400F86800F0F7F888E0BB681B7800221946AA
:10047400F86800F0EFF8BB6801331B7800221946D6
:10048400F86800F0E7F8BB6802331B7800221946CD
:10049400F86800F0DFF8BB6803331B7801221946C3
:1004A400F86800F0D7F868E0BB681B7801221946A9
:1004B400F86800F0CFF8BB6801331B7800221946B6
:1004C400F86800F0C7F8BB6802331B7800221946AD
:1004D400F86800F0BFF8BB6803331B7801221946A3
:1004E400F86800F0B7F848E0FB790A2B22D1254BD5
:1004F40000221A70BB681B7800221946F86800F0C5
:10050400A9F8BB6801331B7800221946F86800F08B
:10051400A1F8BB6802331B7800221946F86800F082
:1005240099F8BB6803331B7800221946F86800F079
:1005340091F821E0134B09221A70BB681B78012241
:100544001946F86800F086F8BB6801331B7800226E
:100554001946F86800F07EF8BB6802331B78002265
:100564001946F86800F076F8BB6803331B7801225B
:100574001946F86800F06EF800BF00BF1037BD469A
:1005840080BD00BF5004002080B483B000AF786009
:10059400084611461A460346FB700B46BB701346C9
:1005A4007B702B4B1A6B7B78012101FA03F32849EA
:1005B40013430B63BB78002B16D07B681A68FB7857
:1005C4005B00012101FA03F31A437B681A607B681C
:1005D4001A68FB785B000133012101FA03F3DB4362
:1005E4001A407B681A602CE07B681A68FB785B0011
:1005F400012101FA03F3DB431A407B681A607B682C
:100604001A68FB785B000133012101FA03F3DB4331
:100614001A407B681A607B68DA68FB785B0001210A
:1006240001FA03F31A437B68DA607B68DA68FB78C3
:100634005B000133012101FA03F3DB431A407B68B9
:10064400DA6000BF0C37BD465DF8047B704700BF1D
:100654000038024080B483B000AF78600B46FB7072
:100664001346BB707B681A68FB785B00012101FAB2
:1006740003F31340002B18D0BB78002B09D07B6800
:100684005A69FB78012101FA03F31A437B685A6122
:1006940009E07B685A69FB78012101FA03F3DB4323
:1006A4001A407B685A61002300E0012318460C3786
:1006B400BD465DF8047B704780B400AF2F4B5B6C84
:1006C4002E4A43F4804353642D4B9B682C4A43F0D9
:1006D400010393602A4B9B68294A23F00203936029
:1006E400274B9B68264A23F004039360244B9B68A2
:1006F400234A23F008039360214B9B68204A43F06C
:10070400100393601E4B9B681D4A23F020039360E3
:100714001B4B9B681A4A23F040039360184B9B6859
:10072400174A23F080039360164B1B68154A43F065
:1007340001031360134B1B68124A43F00203136056
:10074400104BDB680F4A43F00103D3600D4BDB68A9
:100754000C4A43F00203D3600B4B1B680A4A43F074
:1007640040031360084B1B68074A43F0800313607F
:1007740000BFBD465DF8047B704700BF00380240EF
:1007840000380140003C014000E100E080B582B047
:1007940002AF0123002200210A48FFF7F5FE0123DE
:1007A400002201210748FFF7EFFE002301930823ED
:1007B40000930723062205210348FFF709FDFFF7ED
:1007C4007BFFFEE7000402400000024080B500AF5A
:1007D400074B1B780133DAB2054B1A70044B1B78B4
:1007E4001A4604490448FFF71DFD00BF80BD00BF41
:1007F40050040020000000200000024080B500AF3B
:10080400074B1B78013BDAB2054B1A70044B1B787B
:100814001A4604490448FFF705FD00BF80BD00BF28
:1008240050040020000000200000024080B500AF0A
:10083400FFF7CCFF00BF80BD80B500AFFFF7DEFF40
:1008440000BF80BD80B500AF164BD3F88830154A81
:1008540043F47003C2F88830134B1B68124A43F008
:1008640001031360104B00229A600F4B1B680E4A61
:1008740023F0847323F4803313600B4B0B4A5A60C8
:10088400094B1B68084A23F480231360064B00229B
:10089400DA6000F00DF8034B4FF000629A6000BF7D
:1008A40080BD00BF00ED00E000380240103000249D
:1008B40080B483B000AF00237B6000233B60354BE2
:1008C4001B68344A43F480331360324B1B6803F4CF
:1008D40000333B607B6801337B603B68002B03D1B2
:1008E4007B68B3F5A04FF0D12A4B1B6803F40033A7
:1008F400002B02D001233B6001E000233B603B68F6
:10090400012B40D1234B1B6C224A43F080531364C8
:10091400214B1B68204A43F4404313601D4B1D4A7E
:100924009B6893601B4B1B4A9B689360194B9B68A5
:10093400184A43F480539360164B184A5A60154B77
:100944001B68144A43F08073136000BF114B1B688B
:1009540003F00073002BF9D0114B40F202721A60BD
:100964000C4B9B680B4A23F003039360094B9B6871
:10097400084A43F00203936000BF064B9B6803F0F0
:100984000C03082BF9D100BF0C37BD465DF8047B7E
:10099400704700BF003802400070004019544107FE
:1009A400003C02400D4885460D480E490E4A00237E
:1009B40002E0D458C4500433C4188C42F9D30B4A0F
:1009C4000B4C002301E013600432A242FBD3FFF777
:1009D40039FF00F011F8FFF7D9FEFEE7000001200F
:1009E4000000002034040020880B00083404002098
:1009F40078040020FEE7000070B50D4E0D4D761B07
:100A0400B61006D00024013455F8043B9847A6429A
:100A1400F9D1094E094D761B00F0A0F8B61006D0A6
:100A24000024013455F8043B9847A642F9D170BD1F
:100A34007C0B00087C0B0008840B00087C0B00086E
:100A4400024B13B1024800F005B8704700000000E3
:100A5400650A0008002301461A46184600F01EB82D
:100A640038B50A4C0A4D641BA4100AD004F1804323
:100A7400013B05EB8305013C55F804399847002CEC
:100A8400F9D1BDE8384000F06FB800BF880B00080A
:100A9400840B0008704700BF704700BF2DE9F8437E
:100AA4002B4D0646286898460F469146FFF7F2FFFD
:100AB400284B1C68D4F84831002B3DD05A681F2AB3
:100AC4000DDC02F1010C16BB0232C3F804C0286825
:100AD40043F82270FFF7E0FF0020BDE8F8831E4BC7
:100AE4007BB34FF4C870AFF30080034648B3D4F827
:100AF40048210021C0E900214FF0010CC4F848014D
:100B04000A46C0F88811C0F88C11002EDCD003EB23
:100B140082010124C1F88890D3F8880194402043CD
:100B2400022EC3F88801C1F80881CDD1D3F88C1105
:100B34000C43C3F88C41C7E704F5A673C4F84831E5
:100B4400BCE72868FFF7A8FF4FF0FF30C5E700BFF8
:100B540030040020780B000800000000F8B500BF46
:100B6400F8BC08BC9E467047F8B500BFF8BC08BC8A
:040B74009E467047E2
:040B78000800002051
:080B7C00450A0008B901000858
:040B840095010008CF
:100B8800050607080000000000000000F40200202D
:100B98005C030020C40300200000000000000000E7
:100BA800000000000000000000000000000000003D
:100BB800000000000000000000000000000000002D
:100BC800000000000000000000000000000000001D
:100BD800000000000000000000000000000000000D
:100BE80000000000000000000000000000000000FD
:100BF80000000000000000000000000000000000ED
:100C080000000000000000000000000000000000DC
:100C180000000000000000000000000000000000CC
:100C280000000000000000000000000000000000BC
:100C380001000000000000000E33CDAB34126DE659
:100C4800ECDE05000B0000000000000000000000C2
:100C5800000000000000000000000000000000008C
:100C6800000000000000000000000000000000007C
:100C7800000000000000000000000000000000006C
:100C8800000000000000000000000000000000005C
:040FB80054040020BD
:04000005080009A93D
:00000001FF
